:020000040000FA
:020000000528D1
:08000800090007309F00831678
:100010000313303085000B30860083120313043045
:1000200085009030860000308023A70001308023B7
:10003000A80002308023A9000030AD000030AE00DF
:100040000030AF000030B000F830B100FF30B20037
:10005000B401BE01882304308500903086009823C7
:10006000FF2286197328B823F830A100A001051ECD
:100070003E28A00F3728A10F3728AA28B0308600C5
:10008000AE2390308600AE2386193428B8239223FD
:10009000B801F2013808013EB900922306179223F5
:1000A0000613F20A7208043A031D5828F20192233B
:1000B000B90B4D284B30A200861D67289823A20B50
:1000C0005C28B80A71083806031D49284828F00141
:1000D00000306F23F00A00306F23F00A38086F23D6
:1000E000B823922313288613982386179823861CF7
:1000F0007728FE30A4000030A5007830A6008C23BD
:100100000330602329086023280860232708602320
:100110000A308500850185008501850085018500FF
:1001200085018500850185008501850085018500A3
:100130008501A60F8828A50F8828A40F88288F235B
:10014000A023051AAA2886169223922386129223A8
:1001500092232A28BF230310290CF400B03034184E
:10016000D0308600A0018619BD28A00FB328BF2378
:100170008823B0308600B823AE282D23883A031D8B
:10018000B2282D233308A13A03190F293308B83AAE
:10019000031965293308373A031976293308C03A19
:1001A0000319AB293308D43A03198F293308E23AEB
:1001B00003199D293308F53A0319102A3308983A90
:1001C00003192C2A3308253A0319FE2933081F3A4C
:1001D00003190D2A3308533A03194F293308763A85
:1001E00003195B2933084E3A03194B2933088B3A1C
:1001F00003192A293308063A031920293308693AD2
:1002000003191C2933085C3A031953293308713A3E
:10021000031962293308793A03195729B2282D2383
:100220003518A62A3F3A031DA62A2D233518A62ADB
:10023000623A031DA62A2A2834080139D123AE28A0
:100240008C2305306023EE22B3008F2333087F39DF
:10025000D123AE282D233518A62A8B3A031DA62AB2
:100260002D233518A62AFC39BB00341CAB2AF030EC
:1002700086008C23063060238F23BF223518B02AD6
:100280008C23013060233B0860238F23D322351851
:10029000B02AEF23AE2826307F39D123AE28730849
:1002A0007F39D123AE2871087F39D123AE28750854
:1002B0007F39D123AE2802308023A0000310200C08
:1002C000D123AE287408D123AE282D233518A62AB1
:1002D000163A031DA62A2D233518A62AA000200DA4
:1002E000FE39A900A801A701EF23AE282D23351858
:1002F000A62AD83A031DA62A2D233518A62A063A7F
:10030000031DA62A341CAB2AF00127086F23F00A2C
:1003100028086F23F00A29086F23EF23AE282D2326
:100320003518A62AAD002D233518A62AAE002D2398
:100330003518A62AAF00EF23AE282D233518A62A9C
:10034000B0002D233518A62AB1002D233518A62A72
:10035000B200EF23AE28EF23A601A501A4013008C7
:10036000A6023108031C310FA5023208031C320F0C
:10037000A4028C23033060232F0860232E086023FF
:100380002D086023BC01B430BF00BC0A3C1CD52939
:10039000FB30A200A101A0018618E229A00FCC2900
:1003A000A10FCC29A20FCC29FA29FB30A200A10170
:1003B000A001861CE229A00FD929A10FD929A20FDB
:1003C000D929FA290830A0003F088600043A86009F
:1003D0000230850000308500A00BE429A60FC52956
:1003E000BF12BE0ABE19BF16A50FC529A40FC52985
:1003F0008F23AE288F230430B522AE282D23351845
:10040000A62AFA3A031DA62A2D233518A62A993AB8
:10041000031DA62A8A23EF23AE288823EF23AE28C4
:1004200020233518A62A341CAB2AF03086008C22F3
:100430008C23063060238F23BF223518B02A8C23EB
:10044000D830602359238F239823D3223518B02A1C
:1004500098239922EF23AE2820233518A62A40306E
:10046000B600A03084002D233518A62A8000840A07
:10047000B60B332A341CAB2AF030BE0ABE198600F4
:1004800075185C2A8C23063060238F23BF22351811
:10049000B02A8C230230602359234030B600A030AC
:1004A000840000086023840AB60B512A8F23D322CC
:1004B0003518B02AEF23AE288C228C230630602317
:1004C0008F238C23AD3060235923A0308400000893
:1004D0006023840A00086023840A8F23D3223518FE
:1004E000B02A1F30B6008C23AD3060230008602393
:1004F000840A00086023840A8F23D3223518B02A87
:10050000B60B732A8C23043060238F23D322351833
:10051000B02A9922EF23AE28751C08008C230630E0
:1005200060238F238C2301306023003060238F23CE
:100530000800751C08008C23063060238F238C2351
:10054000013060233C3060238F2308008C30D1239E
:100550000130B522AE288F30D1230230B522AE282B
:100560008B30D1230330B522AE28B700F03086009F
:100570009223903086009223B70BB62A0800B5016B
:100580008C2305306023A001A101FA30A200EE22E5
:10059000B318D12AA00FC72AA10FC72AA20FC72AB2
:1005A00035148F230800B501A001A00FD52A8C2394
:1005B00005306023A001A101FA30A200EE22331C15
:1005C000E92AA00FDE2AA10FDE2AA20FDE2A3514A7
:1005D000EC2AEE223318DE2A8F230800B3010830FC
:1005E000A3000310B30D0618331402308500000079
:1005F000000000008501A30BF12A33080800F50173
:100600000130F1008C23AB306023003060230030D8
:10061000602300306023EE22F300BF3A031D152B48
:100620002030F1000130F5001E2B7308F03E031955
:100630001E2BA0000310F10DA00B1A2B8F23080016
:100640002D2335180800AA002D2335180800AB000B
:100650002D2335180800AC0008000830A300B501B0
:10066000B3010310B30D0000000000000000A00162
:10067000A101851A412BA00F392BA10F392B35145D
:10068000080000000000000000008618331400007D
:10069000000000000000A001A101851E552BA00F45
:1006A0004D2BA10F4D2B35140800A30B312B330814
:1006B00008002C0860232B0860232A086023080008
:1006C000A0000830A3000030A00D03180130850001
:1006D00002388500023A8500A30B632B08008316BD
:1006E00003139A0070089B001C1555309D00AA301A
:1006F0009D009C149C187A2B1C1183120313080074
:10070000831603139B001C141A088312031308009A
:10071000341008003414080000308500080004304C
:10072000850008000530A2009823A20B942B080036
:10073000A101A0010000A00F9A2BA10F9A2B080085
:10074000A0010000A00BA12B08000530A100A00112
:100750000000A00FA82BA10BA82B0800A030A1001F
:10076000A001051A0800A00FB12BA10BB12B0800A6
:10077000A201A523861DB82BA20FB92B080080303B
:10078000860098239030860008000830A000B4301E
:10079000860090308600023085008501A00BC72BB3
:1007A0000800BA008F23831603130A3086008312D1
:1007B00003130830A3009030BA1B013886000438B8
:1007C0008600043A8600BA0DA30BDB2B83160313B5
:1007D0000B3086008312031390308600080000302F
:0407E000D123080019
:02400E00023F6F
:06420000000000000000B8
:00000001FF
