:020000040001F9
:40000000180E50524F00000100000000000000013E08320018FF324E01013E00320218FF3E62320418FFDD210010FF21000000DD2F0021020000DD2F042160FF07DD2F0818
:4000400021600100DD2F0CDD36104F3E00DD77113E00DD7712215101011100008401001000EDB021511101110000FF01000200EDB0FD21000080110010000E08ED54000626
:4000800008DD7300DD720113ED320210F4D511000200FD19D10D20E421511301110000C001002400EDB021513701110002FF01000200EDB03E01320118FF3E01320318FFF7
:4000C000DD210008FF3E062A513901ED5B553901DD7500DD7401ED4B533901DD7102DD7003ED4B573901DD7104DD7005DD7306DD7207ED3208011000000901600000EB0973
:40010000EB3D20CC3E1D5BCD200A00FE76283978FE79200D21500101347EE60777321210FF78FE78200D214F0101347EE60777321110FF78FE7720CC3A4E0101EE08324E63
:400140000101320018FF18BC3EFFC3140A000000003C3C3C3C3C3C3C3C3C000000000000003C000000000000003C000000000000003C000000000000003C00000000000036
:40018000003C000000000000003C000000000000003C3C3C3C3C3C3C3C000000000000000000000000000000000000000000000000000000000000000000000000000000E7
:4001C00000000000000000000000000000000000003C3C3C3C3C3C3C3C00000000000000000000000000000000000000000000000000003B3B3B3B3B3B003B0E1A2C221AF2
:4002000013003B132C322C221A3B0E13222C25221A3C3C3C3C3C3C3C3C0000000000000000000000000000000000000000000000003B3B0000000000000E3B3B00000000B2
:4002400000130E3B0000000000130E3B3B000000003C3C3C3C3C3C3C3C000000000000000000000000000000000000000000000000000000000000000000000000000000AB
:4002800000000000000000000000000000000000003C3C3C3C3C3C3C3C0000000000000000000000000000000000000000000000000000000000000000000000000000005E
:4002C000000000000000000000000000000000003B3C3C3C3C3C3C3C3C0000000000000000000000000000000000000000000000000000003B3B3B0000003B3B1F1F153B2E
:400300003B3B1F2828281F1B151F283434342E1F1B3C3C3C3C3C3C3C140000000000000014000000000000001400000000000000140000000000000014000000000000000E
:40034000143B00000000000014153B0000000000143C000000000000003C000000000000003C000000000000003C000000000000003C000000000000003C0000000000004E
:400380003B3C00000000003B2A3C00000000003B3A0000003B3B3B000000003B0E133B3B3B00003B1322130E3B0000000B13221A13000000003B3B131A3B3B000000003B65
:4003C0003B3A2A3B000000003B3A3A3B0000003B103B0E131A22221A133B3B0E131A130E0D3B3B0E131A130E0D3B3B3B3B3B3B3B3B22252C323332302C3B3B3B3B3B3B3B6E
:400400003B10163B3B3B12183B163B23412F3B3B2F0E0E0E3B00003B3B3B3B3B3B3B3B3B133B3B3B3B3B0E221A3B07073B13221A132C22221A1A133B3B3B3B3B3B3B3B004B
:40044000003B3B16103B00000041233B16103B00003B000000000000000E3B000000000000133B0000000000000B00000000000000000000000000000000003B3B3B000017
:4004800000003B2A3A2A3B0000003B3A3A3A3B00000000000000003B1F0000000000003B2800000000003B1F3400000000003B283500000000003B3435000000003B1F35FE
:4004C00035000000003B283535000000003B2835352834353535342E1F3738383735353428383F3F383535342E383F3F383535342E373838373535342E353535353535347D
:400500002E353535353535342E353535353535342E1B153B00000000141F193B00000000141F1B153B00000014281F193B00000014281F1B3B00000014281F1B153B000097
:4005400014281F1B193B000014281F1B193B0000143C00000000003B313C00000000003B313C000000003B3B2A3C0000003B182A313C00003B184141413C003B1841414119
:40058000413C003B31414141413C003B314141414141313B0000003B2A41313B00003B1E41412A3B00003B2A4141411E3B3B3B314141413A2A1E3B314141232A413A3B3114
:4005C00041412A1841413B3141412A1641313B31413B23411E3B23411E3B2A413B3B18413B3B1E2F3B3B182F3B1E3B1E18183B16182F1E3B3B3B2A3A3B414141414141414A
:40060000413B1E2A4141414141413B3B3B3B3B3B3B3B2A183B183B00003B23183B1E103B003B1C183B1E163B0018183B1E1E183B3B3B3B1E2F1E183B1E4141412F18183BB1
:400640003A412A1E3B1E183B413B3B3B2A1E163B31003B3141313B0000003B3141313B0000003B2A412A3B3B003B1E4141312A183B2A3A414141414118412A2341414141FB
:400680004141182A414141414141162A4141414141000000003B283535000000003B2835350000003B3B3B3B3B0000003B272F3A413B00003B272F3A41183B00003B0902BE
:4006C00011313B00003B090211313B00003B273A41353535353535342E353535353535342E3B3B3B3B3B3B3B3B414141413A2F271E414141413A2F271E1111111111110CEF
:40070000021111111111110C02414141413A2F271E281F1B193B000014281F1B193B0000143B3B3B3B3B3B00141E1C1C18123B00141E1C1C18123B0014030908013B000099
:4007400014030908013B0000141E1C18123B0000143C003B313A4141413C003B2A3A3A3A3A3C003B18313131313C00003B182323233C0000003B3B3B3B3C00000000000071
:40078000003C000000000000003C000000000000003A2A16312A3B1E31312A162A183B3B2A2A233B183B003B1E23183B3B0000003B3B3B00000000003B000000000000003E
:4007C00000000000000000003B00000000003B3B3B41413B3B2036203B3A4141183B3B3B3B2F3A3A414141413A1E2A2F2F2F2F2F2F16232A2A2A2A2A233B161E1E1E1E1E4C
:400800001E183B3B10181818163B3B2A3B3B3B3B3B3B3B3A2A1E103B2A183A2A1E163B3B182F2A1E18103B003B2A1E18163B0000001E1816103B0000001816103B00000056
:4008400000103B3B183B0000003B2A3B3B3B3B3B0031162A3A4141413A2A162A313A3A3A3A183B232A313131313B3B18232323231800003B3B3B3B3B3B00000000000000F0
:400880000000000000000000000000000000000000313B0000003B2F3A2A3B0000003B090C183B000000003B093B0000000000003B00000000000000000000000000000066
:4008C0000000000000000000000000000000000000414141413A2F271E11111111111102030C11111111110209273A41413A271E1C3B273A3A2F1E1C18003B090C11090828
:400900003B00003B090C093B0000003B27411E3B001E1C183B000000140908013B0000001408013B0000000014183B0000000000143B0000000000001400000000000000DC
:4009400014000000000000001400000000000000143C000000000000003C000000000000003C000000000000003C000000000000003C000000000000003C000000000000D3
:40098000003C000000000000003C00000000000000000000003B204136000000003B363636000000003B2D3A3A000000003B3B3B3B00000000000000000000000000000048
:4009C00000000000000000003B0000000000003B0436203B183B00003B3636203B3B00003B3A2D26203B00003B3B3B3B3B3B00003B00000000000000003B00000000000061
:400A000000043B0000003B3B3B0A0A3B003B0A060A183B20364136203B3B2036363636363B20262D3A3A3A2D3B3B3B3B3B3B3B3B3B000000000000000000000000000000A2
:400A4000003B00000000000000043B0000000000000000000000000000000000000000000000000000000000000000000000000000000000000000000000000000000000FC
:400A80000000000000000000000000000000000000000000000000000000000000000000000000000000000000000000000000000000000000000000000000000000000036
:400AC000000000000000000000000000000000003B00003B27411E3B0000003B090C093B0000003B090C093B0000003B27411E3B0000003B27411E3B0000003B090C093B0B
:400B000000003B3B090C093B3B3B1C27413A271C120000000000000014000000000000001400000000000000140000000000000014000000000000001400000000000000F9
:400B40001400000000000000143B3B0000000000143C000000000000003C000000000000003C000000000000003C000000000000003C000000000000003C0000000000005B
:400B8000003C0000000000003B3C00000000003B0F0000000000003B0A0000000000003B060000000000003B0A0000000000003B0400003B3B3B3B3B3B3B3B0F17171714EE
:400BC0003B0F17212117171714172B3C2B21171717060A043B0A06040504050A3B050A3B04053B053B0A3B050A0A3B0A3B3B0A0A04043B0A3B3B3B3B3B3B3B043B0A060AF6
:400C0000043B3B3B3B3B3B060A140F3B3B0A0504050A3B000000000000053B000000000000043B0000000000003B0000000000000000000000000000003B00000000000053
:400C4000000A3B0000000000000A043B00000000000000000000000000000000000000000000000000000000000000000000000000000000000000000000000000000000E6
:400C800000000000000000000000000000000000000000000000003B0900000000003B3B3B000000000000000000000000000000000000000000000000000000000000003F
:400CC00000000000000000003B00000000003B3B2402111D291D1102093B3B3B3B3B3B3B3B000000000000000000000000003B3B000000003B3B243D3B003B3B243D3E3EDA
:400D00003D3B243D2E193D3E3E3D3E3E193D393E3D08013B00000000143B3B3B3B00000014000000000000001400000000000000143B000000000000142E3B0000000000DF
:400D4000143E2E3B0000000014393E2E3B000000143C00000000003B173C000000003B0F173C000000003B17173C000000003B17173C000000003B17173C000000003B1708
:400D8000173C000000003B17173C0000003B0F1717213C413C21171717212B3C2B211717171721212117171717171717171717171717171717171717141717171717171489
:400DC0001417171717171414141717171414140F0F17143B3B040A050A17140F3B3B3B3B3B14140F3B0000000014140F3B00000000140F0F3B00000000140F0F3B000000B4
:400E0000000F0F3B00000000000F0F3B0000000000043B0000000000003B000000000000000000000000000000000000000000000000000000000000000000000000000086
:400E40000000000000000000000000000000000000000000000000000000000000000000000000000000000000000000000000000000000000000000000000000000000072
:400E800000000000000000000000000000000000000000003B3B243D3E00003B243D3E3E3E00003B2E2E2E2E3D00003B242E2E2E2E00003B2E193B242E00003B2E3B2E3D62
:400EC0002E00003B2E243D3E2E00003B2E2E2E2E2E2E3E3E3D39403E3E393E3D3E3E3E2E3D2E193B242E2E3B2E2E3B2E3D2E2E243D2E243D3E2E2E2E2E2E2E2E2E242E2EFF
:400F00002E2E2E2E2E3D2E193B193B242E2E2E3B2E3E3E3D3B000000143E3E3E243B0000143D2E2E243B0000143E2E2E243B0000142E242E243B0000142E3D2E243B000068
:400F400014242E2E243B0000143D2E2E243B0000143C0000003B1414143C00003B0F0F0F0F3C003B3B3B3B3B3B3C000000000000003C000000000000003C000000000000A6
:400F8000003C000000000000001414141414141414141414140F0F0F0F0F0F0F0F0F0F0F3B3B3B3B3B3B3B3B00000000000000000000000000000000000000000000000088
:400FC00000000000000000000014141414141414140F3B0000000000003B0000000000000000000000000000000000000000000000000000000000000000000000000000CC
:401000000000000000000000001414141414141414000000000000000000000000000000000000000000000000000000000000000000000000000000000000000000000010
:4010400000000000000000000014141414141414140000000000000000000000000000000000000000000000000000000000000000000000000000000000000000000000D0
:40108000000000000000000000141414141414141400003B2E2E2E2E2E00003B2E19242E2E00003B2E243D2E2E00003B3B3B3B3B3B000000000000000000000000000000E5
:4010C00000000000000000000014141414141414143B2E3D2E2E2E243D243D3E2E3D2E2E2E2E2E2E2E2E2E2E243B3B3B3B3B3B3B3B000000000000000000000000000000ED
:4011000000000000000000000014141414141414143E2E2E243B0000142E242E243B0000142E2E2E243B0000143B3B3B3B3B000014000000000000001400000000000000C3
:4011400014000000000000001414141414141414140F0F05000D000B00500070009000000017001900600011012E0200020003040444044F0455052005060640066606174E
:4011800007770750073008500888088F0899096009100A3A0A410AAA0A700A500B880BBB0B800BBF0BCC0C4C0C500CAA0C900DDD0D500DEE0E720E950EA20EB40E000FC625
:4011C0000FD80FF00FFF0F00006F0FB00FD00FFB0FF60FFF0FFF0FFF0FFF0FFF0FFF0FFF0FFF0FFF0FFF0FFF0FFF0FFF0FFF0FFF0FFF0FFF0FFF0FFF0FFF0FFF0FFF0FFF8E
:401200000FFF0FFF0FFF0FFF0FFF0FFF0FFF0FFF0FFF0FFF0FFF0FFF0FFF0FFF0FFF0FFF0FFF0FFF0FFF0FFF0FFF0FFF0FFF0FFF0FFF0FFF0FFF0FFF0FFF0FFF0FFF0FFFEE
:401240000FFF0FFF0FFF0FFF0FFF0FFF0FFF0FFF0FFF0FFF0FFF0FFF0FFF0FFF0FFF0FFF0FFF0FFF0FFF0FFF0FFF0FFF0FFF0FFF0FFF0FFF0FFF0FFF0FFF0FFF0FFF0FFFAE
:401280000FFF0FFF0FFF0FFF0FFF0FFF0FFF0FFF0FFF0FFF0FFF0FFF0FFF0FFF0FFF0FFF0FFF0FFF0FFF0FFF0FFF0FFF0FFF0FFF0FFF0FFF0FFF0FFF0FFF0FFF0FFF0FFF6E
:4012C0000FFF0FFF0FFF0FFF0FFF0FFF0FFF0FFF0FFF0FFF0FFF0FFF0FFF0FFF0FFF0FFF0FFF0FFF0FFF0FFF0FFF0FFF0FFF0FFF0FFF0FFF0FFF0FFF0FFF0FFF0FFF0FFF2E
:401300000FFF0FFF0FFF0FFF0FFF0FFF0FFF0FFF0FFF0FFF0FFF0FFF0FFF0FFF0FFF0FFF0FFF0FFF0FFF0FFF0FFF0FFF0FFF0FFF0FFF0FFF0FFF0FFF0FFF0FFF0FFF0FFFED
:401340000FFF0FFF0FFF0FFF0FFF0FFF0FFF0FFF0F0000000000000000000000000000000000000000000000000000000000000000000000000000000000000000000000EE
:40138000000000000000000000000000000000000000000000000000000000000000000000000000000000000000000000000000000000000000000000000000000000002D
:4013C00000000000000000000000000000000000000000000000000000000000000000000000000000000000000000000000000000000000000000000000000000000000ED
:401400000000000000000000000000000000000000000000000000000000000000000000000000000000000000000000000000002500000000000000000000000000002562
:401440003000000000000000000000000000391E2E000000000000000000000000390D3E2E00000000000000000000003936103F17000000000000000000001C37363B3B31
:40148000370000000000000000001C0C33043836340000000000000000003903030B37343300000000000000001C36030D170B3333000000000000001C0A030B172F100395
:4014C000040000000000000039030B173F3F1706050000000000001C36373C3F2E2E320D0500000000000039363B3F2E2E2E3F3B0600000000001C3738322E2E2E2E2E3D73
:401500000D0000000000390B3D2E2E2E2E2E2E2F3B000000001C0C3C3F2E2E2E2E2E3F3C0D000000001C383E2E2E2E2E2E3F170D0B0000001C0F172E2E2E2E2E3F323809CE
:401540000B0000001C3C3F2E2E2E2E2E3E1009090B000000253D2E2E2E2E2E3F3C09090B0B00001C0F3C2E2E2E2E2E170B09090B0B00001C373B2F2E2E2E32380606090B25
:401580000B00001C03382F2E2E3F3B090606090B0B00000C340B322E2E170B060606090B0B001C373337172E3E3836060606090B0B001C363303102F3C0905060606090B4E
:4015C0000B001C0333330B17380505050606090B0B00393433333638370505050606090B0B1C0A333333030B06050505060609090B1C0A333333373C0D040505060609099F
:401600000B23363333340D323C090505050606090B1C363333363C3F3F103605050606090B1C363333093D2E2E3238050506060909230333340D3E2E2E2E3D0D0505060633
:40164000091C0433043B3F2E2E2E2E3D0B050606091C3633093D2E2E2E2E2E3F170B06060D1C37330D3E2E2E2E2E2E2E3F3C0B373B1C0D03102F2E2E2E2E2E2E2E3F3C0D39
:40168000321C0F363C3F2E2E2E2E2E2E2E2E3E383B1C260C172E2E2E2E2E2E2E2E2E3D09371C26381E2E2E2E2E2E2E2E2E3F3B3605002617312E2E2E2E2E2E2E2E3D0D0393
:4016C0000400253C3B2F2E2E2E2E2E2E2E3C363333001C100B3D2E2E2E2E2E2E2F10033333001C1036103E2E2E2E2E2E320D03333300002504373C3F2E2E2E2E170633337D
:401700003300002536030D3D3F2E2E3F3B0333333300001C373303103E2E2E2F380333333300001C0C343336102F2E3D0B3333333300000039033333063B2F1709333333D6
:40174000330000001C03333303373C3C05333333330000001C0A3333333309380333333333000000003903333333030B0903333333000000001C3733333303383C0B033300
:401780003300000000003903333303383E170D033300000000001C37333303103F3F3D383600000000000039033303103F2E3F3E3B0000000000001C0C3303383E2E2E2E87
:4017C0003F000000000000001C3603383E2E2E2E2E000000000000000039360D3E2E2E2E2E00000000000000001C0C0B322E2E2E2E0000000000000000001C0F172F2E2ECB
:401800002E00000000000000000000251D1E272F2F000000000000000000001C2510171E1E00000000000000000000001C390F2A2A0000000000000000000000001C110FFD
:401840001D00000000000000000000000000231139000000000000000000000000000023110000000000000000000000000000002300000000000000000000000000000087
:401880000000000000000000000000000000000000000000000000000000000000000000000000000000000000000000000000000000000000000000000000000000000028
:4018C00000000000000000000000000000000000000000000000000000000000000000000000000000000000000000000000000000000000000000000000000000000000E8
:4019000000000000000000000000000000000000000000000000000000000000000000000000000000000000000000000000000000000000000000000000000000000000A7
:401940000000000000000000000000000000000000000000000000000000000000000000000000000000000000000000000000000000000000000000000000000000000067
:4019800000000000000000000000000000001C1C2500000000000000000000001C1C252A270000000000000000001C1C39103B380B000000000000001C1C39370B09050359
:4019C000340000000000001C390C103B0633333333000000001C1C0C3B3D3E3B043303360B0000001C39103D3F2E2F103637383C3200001C0F172F2E2E3F321038173E2E1B
:401A00002E001C263E2E2E3F3E3C0D0B172E2E2E2E1C2A3F2E2E2F1738063404103F2E2E2E1E2E2E3F3D3B090333333409172E3F322E2E3E3C0D04333333333304103217AD
:401A40000D2E2F10363433333333333304371037053D0D033333333333040405093B3C0B05090334333303040505060D173F3F170D343333330405050509103D3F2E2E3F4D
:401A800017333303050505060B3B3E2E2E2E2E2E3F3304050506060D3C3E2E2E2E2E2E2E2E04050506060D173F2E2E2E2E2E2E2E2E05050609383D3F2E2E2E2E2E2E2E2EA8
:401AC0002E050609383D3F2E2E2E2E2E2E2E2E2E2F0609103D3F2E2E2E2E2E2E2E2E2E3F3C06383D2E2E2E2E2E2E2E2E2E2E3F1738383D3F2E2E2E2E2E2E2E2E2E3F3210C7
:401B0000383D3F2E2E2E2E2E2E2E2E2E2E323B10383B2F2E2E2E2E2E2E2E2E2E2F3C1010100D3C2F2E2E2E2E2E2E2E3F173B3B10100B383C3F2E2E2E2E2E3F3D3C3B3B3B1A
:401B40003B0D0D38173F2E2E2E2E323C3B3B3B3B3B0D0D3810173F2E2E3F173C3C3C3B3B3B0D3838103B3D2E2E3D3C3C3C3C3C3B3B0D3838103B3C3D273C3C3C3C3C3C3B1B
:401B80003B0D3838103B3B3C173C3C3C3C3C3C3B3B0D3838103B3B172F3D173C3C3C3C3B3B0D3838103B3C3E2E3F3E3D3C3C3B3B3B0D3838103B3D3F2E2E2E3F32173B3B94
:401BC0003B0D3838103C2F2E2E2E2E2E2E2F173B3B0D0D38103D2E2E2E2E2E2E2E2E3F323C0D0D383C2F2E2E2E2E2E2E2E2E2E2E2F0D0D103E2E2E2E2E2E2E2E2E2E2E2E0C
:401C00002E0B0D3C3F2E2E2E2E2E2E2E2E2E2E2E2E0B103E2E2E2E2E2E2E2E2E2E2E2E2E2E0B3C3F2E2E2E2E2E2E2E2E2E2E2E2E2E383E2E2E2E2E2E2E2E2E2E2E2E2E2E64
:401C40002E3C3F2E2E2E2E2E2E2E2E2E2E2E2E2E2E3E2E2E2E2E2E2E2E2E2E2E2E2E2E2E2E2E2E2E2E2E2E2E2E2E2E2E2E2E2E2E3D2E2E2E2E2E2E2E2E2E2E2E2E2E2E3F95
:401C80003B2F2E2E2E2E2E2E2E2E2E2E2E2E2E3E3810323F2E2E2E2E2E2E2E2E2E2E3F3C09060D172F2E2E2E2E2E2E2E2E2E2F380604050B3B3E2E2E2E2E2E2E2E2E3D0B74
:401CC000063304050638172F2E2E2E2E2E3F10060633333304050B3B323F2E2E2E320D0505333333333304060D3C2F2E3F17370505333333333333330437103D3E10050427
:401D000003333333333333333333360B100B04333333333333333333333333030B3B0D37343333333333333333333303102F3E3C3833333333333333333333363C2E2E2E64
:401D40002F333333333333333333340B322E2E2E2E33333333333333333303382F2E2E2E2E333333333333333333043B2E2E2E2E2E33333333333333333337172E2E2E2E92
:401D80002E3333333333333333030D3E2E2E2E2E2E3333333333333333043B3F2E2E2E2E2E0603333333333333363C2E2E2E2E2E2E3C0D0434333333330B3D2E2E2E2E2EF1
:401DC0002E3F3D103703333303382F2E2E2E2E2E2E2E2E3F3C0D3634033B2E2E2E2E2E2E2E2E2E2E2E323B0B373C2E2E2E2E3F2F3E2E2E2E2E2E3F3D103C323F3F2F273D45
:401E00003D2E2E2E2E2E2E3E10370D3C3D3D1E1E212727272F312727380301360D3B3C212A21211E3D3D3D1E0B020202020237101D2A2A2A2A2A2A2A37020202020202022F
:401E40000A1D1D1D2A2A2A1D0A0202020202022C2C0A0F1D1D1D1D260A02022C2C2C2C2C2C110839262626262C2C2C2C2C2C2C2C2C1F192C0A0F260F2C2C2C2C2C2C2C2CA7
:401E80002C001F1211110E39082C2C2C2C2C2C2C2C00001F13191108080811111111111111000000282418110E0E1611111111111100000000001F132023232316191111F0
:401EC000110000000000002824282929232916151200000000000000001B24282229292922000000000000000000001B24282229290000000000000000000000001B241B27
:401F0000280000000000000000000000000000282400000000000000000000000000000000000000000000000000000000000000000000000000000000000000000000002D
:401F40000000000000000000000000000000000000000000000000001C1C1C1C1C1C1C1C1C0000001C1C1C393939390C0C37383C171C1C1C25262A1E3D3D3D1E10373637E3
:401F800037262A303132173C3B1010101038383838173B380D093736040303371731323D17370403033433340336090D100D0B093733333303360B38103C3D32103603038E
:401FC0000403370D103C3D3E2F2E2E2E3D0D09383B10173E2F2E2E2E2E2F323C3809383D2E2F2E2E2E2E2E2F17100B050334040D3D2E2E2E2E3E1710090334333333343623
:40200000382E2E2F1738370334333333333436383D3F3D10370333333333333303063B322E3B090333333333333334030B172F2E2E36033333333333333436383D2E2E2EA8
:402040002E0504040333333303373B2F2E2E2E2E2E05050505050404093C2F2E2E2E2E2E2E3605050505050D172F2E2E2E2E2E2E2E0D060605060D3D3F2E2E2E2E2E2E2E83
:402080002F3D380606383D3F2E2E2E2E2E2E2E3F3B2E3210383D3F2E2E2E2E2E2E2E2E3D092E2F3B383C3E2E2E2E2E2E2E2E3E38032F3C0D0B0B383C3E2E2E2E2E3F3C3777
:4020C000333C0D0B0B09090B10173F2E2E3D0D0533380D0B0B0B0909090B3B3D3E3B060533380D0D0B0B0B090909090D3B0D06050438380D0D0B0B0B09090909103C100B01
:40210000373838380D0D0B0B0B09090D3D2E3F323C3838380D0D0D0B0B0B0B3B2F2E2E2E2E103838380D0D0D0B0B38322E2E2E2E2E10103838380D0D0B0D3C2E2E2E2E2ED0
:402140002E3B101038380D0D0D10322E2E2E2E2E2E3B10103838380D38172E2E2E2E2E2E2E3B10103838380D3B3E2E2E2E2E2E2E2E3B1010383838383D3F2E2E2E2E2E2EB2
:402180002E3B10103838383B2F2E2E2E2E2E2E2E2E3B10103838383D2E2E2E2E2E2E2E2E2E3B101038383B2F2E2E2E2E2E2E2E2E2E3B101038103D2E2E2E2E2E2E2E2E2EE5
:4021C0002E101038383B2F2E2E2E2E2E2E2E2E2E2E101038103D2E2E2E2E2E2E2E2E2E2E2E173B383B2F2E2E2E2E2E2E2E2E2E2E2E2E323C3C3E2F2E2E2E2E2E2E2E2E2E7B
:402200002E2E2E3C38383B17323F2E2E2E2E2E2E2E2E3E100D0B0B0D383C3D2F3F2E2E2E2E2E170D0B0B0B0909090B383C3D3E3F2E3E100D0B0B0B09090906060609101712
:4022400027170D0B0B0B090909060606060536060B100B0B0B0909090606060605050505040D0B09090909060606060505050504330B0909090606060606050505050433C9
:4022800033090909060606060605050505043333330906060606060505050505043333330306060606060505050505043333333301060605050505050505033333333333E8
:4022C0003605050505050505043333333333333409050505050504333333333333333303380505040333333333333333333333363B033333333333333333333333333436D1
:402300003D33333333333333333333333333340B313433333333333333333333333303383D09033434333333333333333333363B3D3D100D363434333333333333340617E1
:402340001E2E2E3E3C3809363433333333340B1E2A2E2E2E2E2F323C38373603330110212A2E2E2E2E2E2E3F2F3D3B38370A3B212A2E2E2E2E2E2E2E2E3F3E3D3C100C382C
:40238000102E2E2E2E2E2E2E3F313D1E170F02022C2E2E2E2E2E2E3F273D1E2A3C0C02022C2E2E2E2E2E3E271E212A2A3B0A02022C2E2E2E2E3E3D1E212A2A2A0F2C2C2C5D
:4023C0002C2E2E3F273D1E212A2A2A1D0C2C2C2C2C3F3E271E1E2A2A2A1D1D260A2C2C2C2C273D1E212A2A2A1D1D1D0F2C2C2C2C2C1E212A2A2A2A1D1D1D26392C2C2C2CF4
:402400002C2A2A2A2A1D1D1D2626260A2C2C2C2C2C2A2A1D1D1D1D26262625082C2C2C2C2C1D1D1D1D2626262626392C2C2C2C2C110C0F262626262625250E2C2C2C1111A7
:40244000112C2C0A390F25252525082C2C111111112C2C2C2C2C080E3939081111111111112C2C2C2C2C2C11110E390E0E081119192C2C2C2C2C111111391C232323230EC1
:40248000222C2C11111111110823232323232329291111111111111116232323232929292911111111111119162323292929292929111919191919152929292929292929A8
:4024C00029121212121212152929292929292929291A0735353535202929292929292929292922221A15072029292929292929292922292929291A07152020222222292913
:4025000029241B28222207353535350715151A1A200028243A1F13131435353535353535350000001F3A3A241F1F13131313131414000000000000001F3A3A3A3A3A3A3AAF
:402540003A000000000000000000000000000000001C1C1C1C1C1C1C1C1C000000000000003C3B0F0C393925251C1C1C1C000000000B38103B10380C0C100F0E231C1C1CD5
:4025800000380D0D0D0C0F38380C0F0C0A252539293C3C3B3B101038380D0D0F0C0F0E0E0E36373737370C0D3838380F0F0F0C3939370D383B17173C100B0C100D0D0C0C60
:4025C00039173E2F3E3C383704373B170B0C10390C2E3F1738060334063B32173702100F0A3D10090333330510323F3C36010D3C0F10363433330438322E2F100134373CE4
:402600001D3D100936030D322E2E2F380334363B1D2E2F3D100D3C3E3F2E320B333401382A2E2E3F170B0B383C3D17373333030B2A2E2E3D0B343303040B380B3636013719
:402640003C2E2F380333333333030D273D3C100F382E3B36333333333303102E2E3F27170C3D09343333333333053C2E2E2E311738380333333333333337172E2E2E313DA6
:402680001036343333333333340B322E2E2E313D3B3433333333333303382F2E2E2E313D3C33333333333333043B2E2E2E2E313D3C33333333333333063C2E2E2E2E2F3D28
:4026C00017333333333333340B3D2E2E2E2E3F3D1733333333333303383E2E2E2E2E3F3D21033333333333033B3F2E2E2E2E2F3D21050333333333363C2E2E2E2E2E313D6C
:4027000021100B06033433093D2E2E2E2E2E313D212E323C383736383E3F2E2E2E2E313D212E2E2E2F173B103B173D3E2F3F273D2A2E2E2E2E2E3D090336370B0D103B3CD6
:402740003C2E2E2E2E2E3C363333333333030236372E2E2E2E2F10033333333333333301022E2E2E2E3E0D033333333333333402022E2E2E2E3D093333333333333303021A
:40278000022E2E2E2E3C36333333333333330102022E2E2E2F1004333333333333340102022E2E2E3E0D04333333333333340202022E2E2E320933333333333333010202D7
:4027C000022E2E2E3C3633333333333334010202022E2E3F100433333333333334020202022E2E3E0D0333333333333334020202022E2E3209333333333333340102020235
:40280000022E2E3C363333333333333402020202022E3F10043333333333340202020202022E3E0D0333333333333402020202022C3F3D09333333333333010202020202F1
:402840002C103B3601033333333402020202022C2C040D3C3B100D0B370102020202022C2C033B3F3F3F313D173C100F0D0C0A2C2C36173F2E2E3E3D1E2A2A2A1D1D262653
:402880000F09272E2E2E273D212A2A2A1D1D262626382F2E2E3E3D1E2A2A2A1D1D262626253B3F2E2E273D212A2A1D1D1D262626253D2E2E3E3D1E2A2A2A1D1D26262625D7
:4028C00025312E3F271E212A2A1D1D2626262525253E2E313D212A2A1D1D1D26262525251C2E3E3D1E212A2A1D1D2626262525251C3F3D3D212A2A1D1D26262625252525E2
:402900001C273D212A2A1D1D1D2626252525251C393D212A2A1D1D1D2626262525251C1C391E2A2A2A1D1D262626252525251C1C0E2A2A2A1D1D262626252525251C1C1C87
:402940000E2A2A1D1D26262626252525251C1C1C162A1D1D26262626252525251C1C1C23161D1D26262626252525251C1C1C1C2319262626262625252525251C1C1C230EFA
:40298000190A0A0A39390F0F1C1C1C1C1C232316192C2C2C2C2C2C1108081616160E0E16152C2C2C2C2C2C2C1111111111111929292C2C2C2C2C2C2C1111111111191229BB
:4029C000292C2C2C2C2C2C111111111119191529292C2C2C2C2C11111111111919121A29292C2C2C2C1111111111191912352029292C2C2C11111111111919121807222960
:402A0000292C1111111111111919121835152229291111111111111919121835351A292929111111111919191235353507222929291111111919191235353535152229292F
:402A40002911111919191235353535351A292929291919191218353535353535202929292919121218353535353535152229292929201A15150735353535351A29222222E5
:402A80002229292929222222202020150707070707292929292929292929203535353535352929292929292929221535353535353529292229292929292035353535353527
:402AC000352929292929292922153535353535353529292929292929203535353535353535292929292929221535353535353535352929292929291A3535353535350707C0
:402B0000142020202020201507151A1A1A1B241F1F353535351A292222281B241F1F2200001413131B1B1B241F1F280000000000003A3A3A3A3A3A1F1F00000000000000F4
:402B40000000000000000000000000000000000000000000000000000000000000000000000000000000000000000000000000000000000000000000000000000000000055
:402B800000290000000000000000000000000000000E3A3A00000000000000000000000000390E233A3A0000000000000000000000390E16161A3A3A00000000000000008B
:402BC00000390E39390E1A143A3A000000000000000C0F0E080E0E0E1A133A000000000000080A0F390808160E29282424000000000C2C0A0F1C0E111920221A241F00003F
:402C0000001D0A2C081C1C391619151A35133A00001D0F2C2C08391C391612151A35131F001D1D392C2C08391C231620292007141F1D1D260A2C2C08392316152229221A34
:402C4000141010100F0A0A0E0E161119152229292002022C2C3925251C39111112352029290202022C0A2525251C0E1919123520290202022C2C3925251C23161919353570
:402C8000200202022C2C0825251C1C2316191235350202022C2C2C39251C1C230E151835350A02022C2C2C0825251C1C23290735350C02022C2C2C2C39251C1C232320358C
:402CC000350D02022C2C2C2C081C1C1C23232907353802022C2C2C2C2C391C1C23232920353802022C2C2C2C2C0E1C1C23232329151002022C2C2C2C2C081C1C23232329C3
:402D0000223B02022C2C2C2C2C110E1C23232329293B2C022C2C2C2C2C110E1C23232329293C2C022C2C2C2C2C2C082323232329293B0A2C2C2C2C2C2C2C110E2323291AAC
:402D4000150C0C0C0C393939390E0E0E161512183502101D2626252525251C23191919123502101D26262525251C1C231A19191235020F1D26262525251C1C2316191935FD
:402D800035020F1D26262525251C1C230E19193535020F2626262525251C1C2323191935352C0F2626262525251C1C2323151235352C0F26262525251C1C1C23231A3535A5
:402DC000352C0F26262525251C1C232323163535352C0F26262525251C1C232323223535352C0F262625251C1C1C232323293535352C0F262525251C1C1C232323290735B2
:402E0000352C0F262525251C1C23232323291535352C0F2625251C1C1C23232323291A35352C0F2525251C1C2323232329291A35352C0F2525251C1C232323232929203590
:402E4000352C0F25251C1C1C232323232929203535080F25251C1C232323232929292035350825251C1C1C23232329292222201A20390E0E08080808191512353535072236
:402E80002939112C11111111191919123535352229392C2C11111111191912353535352229392C11111111191919183535353522290E1111111111191912183535353522D0
:402EC000290E111111111919191835353535352229081111111119191235353535353522290811111119191918353535353535222911111111191912353535353535352243
:402F000029111111191912183535353535353522291111111919123535353535353535222911111919123535353535353535352229111919191835353535353535353522B0
:402F400029111919123535353535353535353522291919123535353535353535353507292919191835353535353535353535152929191235353535353535353535351A2256
:402F80001A12183535353535353515151A201535351515151A1A20202022222229291535352929292929292929292929292207353529292929292929292929292920353578
:402FC00035292929292929292929292929203535352929292929292929292929291A3535352929292929292929292929221535353529292929292929292229292035353538
:4030000035292929292929292929292920353535352929292929292929292929153535353529292929292929292929223535353535292929292929292929291A35353535AB
:4030400015292929292929292929221535071A222929292929292929292920152022292928292929292922201A1A2229292929281F22201A1A153535351522292922283A09
:40308000003535353535353507202929221B1F0000353535353535351A2929222424000000353535353535152229281F00000000003535353535072022241F000000000005
:4030C0000035353535071A2824000000000000000035353535141F1B0000000000000000003535131F1B0000000000000000000000241F1B00000000000000000000000058
:40310000002200000000000000000000000000000000000000000000000000000000000000000000000000000000000000000000000000000000000000000000000000006D
:40314000000000000000000000000000000000000000000000000000000000000000000000000000000000000000000000000000000000000000000000000000000000004F
:40318000000000000000000000000000000000000000000000000000000000000000000000000000000000000000000000000000000000000000000000000000000000000F
:4031C00000000000000000000000000000000000000000000000000000000000000000000000000000000000000000000000000000000000000000000000000000000000CF
:40320000000000000000000000000000000000000000000000000000000000000000000000000000000000000000000000000000001F00000000000000000000000000006F
:4032400000141F000000000000000000000000000020143A000000000000000000000000002922143A000000000000000000000000292922143A0000000000000000000052
:40328000002029292213240000000000000000000007222929201F000000000000000000003515222929281F0000000000000000003535152229291B240000000000000052
:4032C000003535351A29291A1F00000000000000003535350720220713240000000000000035353535152007351F000000000000003535353535153535133A00000000002B
:4033000000153535351A221535351F000000000000220707202929200735131F0000000000221A22292929291A35353A000000000035072229292929220735131F0000007D
:403340000035351A29292929291A35143A0000000035350722292929292207353A000000003535352029292929291A35131F0000003535351522292929292207143A000092
:4033800000353535352029292929291A353A000000353535351A292929292920351F3A00003535353507222929292922151324000035353535352029292929291A141F0008
:4033C0000035353535351A2929292929201B1F0000353535353507222929292929203A0000353535353535202929292922203A1F003535353535351A2929292215153A1F15
:403400000035353535353515222922153507283A00353535353535072222153535351B2400353535353535352015353535351B1F003535353535351515353535353515243D
:4034400000353535071A22291A3535353535152400071A222929292920353535353507240029292929292929220735353535141F0029292929292929220735353535131F0D
:403480000029292929292929220735353535131F00292929292929292215353535351F1F00292929292929292915353535351F1F00292929292929292915353535351F0097
:4034C0000029292929292929291A353535143A000029292929292929291A353535143A000029292929292929291A353535141B000029292929292929291A353515242900D0
:403500000029292929292929291A3507201F0000002929292929292929150720281F00000029292929292929291A20291B2800000029292929292929222229222400000023
:403540000029292929292215072229222400000000292929221535350722291B2800000000222015353535350722221F0000000000073535353535351A29281B000000009E
:40358000003535353535353520221F0000000000003535353535350722282400000000000035353535353515222400000000000000353535353535201B1B00000000000057
:4035C00000353535353507281F00000000000000003535353535152400000000000000000035353535351B1B00000000000000000035353535141F000000000000000000EC
:4036000000353535071F00000000000000000000003535071F240000000000000000000000351A1B2400000000000000000000000022281F0000000000000000000000001A
:4036400000283A00000000000000000000000000001F00000000000000000000000000000000000000000000000000000000000000000000000000000000000000000000C9
:40368000000000000000000000000000000000000000000000000000000000000000000000000000000000000000000000000000000000000000000000000000000000000A
:4036C00000000000000000000000000000000000000000000000000000000000000000000000000000000000000000000000000000000000000000000000000000000000CA
:403700000000000000000000000000000000000000000000000000000000000000000000000000000000000000000000000000000000000000000000000000000000000089
:4037400000000000000000000000000000000000000F0B000E000C000F110F110F220F00031108330F220A440E440C660E4407770C990F000700040002000211042206DD56
:403780000F00030005120411027708CC0CEE0E00002204DD0E3304550601019909AA0BEE0F22023404DD0D8E06000AFF0FFF0FFF0FEE0EFF0FEE0F000F000F0003110E2206
:4037C0000D770F55090000BB0FCC0FEE0FFF0FFF0F00000000000000000000000000000000000000000000000000000000000000000000000000000000000000000000001A
:403800000000000000000000000000000000000000000000000000000000000000000000000000000000000000000000000000000000000000000000000000000000000088
:403840000000000000000000000000000000000000000000000000000000000000000000000000000000000000000000000000000000000000000000000000000000000048
:403880000000000000000000000000000000000000000000000000000000000000000000000000000000000000000000000000000000000000000000000000000000000008
:4038C00000000000000000000000000000000000000000000000000000000000000000000000000000000000000000000000000000000000000000000000000000000000C8
:403900000000000000000000000000000000000000000000000000000000000000000000000000000000000000000000000000000000000000000000000000000000000087
:193940000000000000000000000000000000000000A0006400000060000A
:00000001FF
