:020000040007F3
:40800000180E50524F0080070000003800000001212080073E255BCD200A005BC3140A0048696768206C6F61642066696C6520746573740B00373737373737373737373768
:408040003737373737373737373737373737373737373737373737373737373737373737373737373737373737373737373737373737373737373737373737373737373740
:408080003737373737373737373737373737373737373737373737373737373737373737373737373737373737373737373737373737373737373737373737373737373700
:4080C00037373737373737373737373737373737373737373737373737373737373737373737373737373737373737373737373737373737373737373737373737373737C0
:40810000373737373737373737373737373737373737373737373737373737373737373737373737373737373737373737373737373737373737373737373737373737377F
:00000001FF
