:020000040001F9
:40000000180E50524F00000100000000000B0101CD1B00013EFF5BC3140A003E08320018FF328705013E00320218FF3E62320418FFDD210010FF21000000DD2F0021020018
:4000400000DD2F042160FF07DD2F0821600100DD2F0CDD36104F3E00DD77113E00DD7712218A05011100008401001000EDB0218A1501110000FF01000200EDB0210000807C
:40008000E5D10100100071237023EB01FE7700EDB0FD21000080110010000E08ED54000608DD7300DD720113ED320210F4D511000200FD19D10D20E4216A0101110000C01A
:4000C00001000400EDB0216A0501110002FF01000300EDB03E0D320118FF3E01320318FF2176050101100000110011FFEDB03A860501320418FFED5B700501ED4B7305010C
:400100003E00DD210008FFCD4C01013E1D5BCD200A00FE76C878FE7820092A7005012322700501FE5820092A7005012B22700501FE7920092A7305012322730501FE5920AC
:40014000092A7305012B2273050118A2DD7300DD7201DD7102DD7003DD360440F600DD7705DD360600DD360700C90101010101010101020202020202020201000000000058
:40018000000102000000000000020100000000000001020000000000000200000000000000000200000000000002000000000000000002000000000000020000000000002C
:4001C00000000000000000000000000000000000000000000000000000000000000000000000000000000000000000000000000000000000000000000000000000000000FF
:4002000000010000000000000002000000000000000100000000000000020100000000000000020000000000000001000000000000000200000000000000000000000000B2
:400240000001000000000000000200000000000000010000000000000002010000000000000002000000000000000100000000000000020000000000000000000000000072
:400280000001000000000000000200000000000000010000000000000002010000000000000002000000000000000100000000000000020000000000000000000000000032
:4002C00000010000000000000002000000000000000100000000000000020100000000000000020000000000000001000000000000000200000000000000000000000000F2
:4003000000010000000000000002000000000000000100000000000000020100000000000000020000000000000001000000000000000200000000000000000000000000B1
:400340000001000000000000000200000000000000010000000000000002010000000000000002000000000000000100000000000000020000000000000000000000000071
:400380000001000000000000000200000000000000010000000000000002010000000000000002000000000000000100000000000000020000000000000000000000000031
:4003C00000010000000000000002000000000000000100000000000000020100000000000000020000000000000001000000000000000200000000000000000000000000F1
:4004000000010000000000000002000000000000000100000000000000020100000000000000020000000000000001000000000000000200000000000000000000000000B0
:400440000001000000000000000200000000000000010000000000000002010000000000000002000000000000000100000000000000020000000000000000000000000070
:400480000001000000000000000200000000000000010000000000000002010000000000000002000000000000000100000000000000020000000000000000000000000030
:4004C00000000000000000000000000000000000000000000000000000000000000000000000000000000000000000000000000000000000000000000000000000000000FC
:4005000000000000000000000000010000000000000100000000000000000100000000000001000000000000000001000000000000010200000000000002010000000000B0
:400540000001020000000000000201000000000000010200000000000002010101010101010102020202020202020000FF0FF00F0001000002000000000000000000000048
:40058000000000000000630000003A27272727272707273A27272727070727273A27270707072727273A0707070727272718180707072727181818180707271818181818D7
:4005C000180707070707070707073C3C3C3C3C3C3C3C00000000000000000000000000000000000000000000000000000000000000000000000000000000000000000000C4
:40060000000000000000000000003C3C3C3C3C3C3C3C00000000000000000000000000000000000000000000000000000000000000000000000000000D0D000000000D0DA6
:400640002B3100000D0D2B29312B3C3C3C3C3C3C3C3C000000000000000000000000000000000000000000000000000D0D070D000000073C210D000000003C210D0000006B
:40068000000021170700000000003C3C3C3C3C3C3C3C000000000000000000000000000000000000000000000000000000000000000000000000000000000000000000001B
:4006C000000000000000000000003C3C3C3C3C3C3C3C000000000000000000000000000000000000000000000000000000000000000000000000000000000000000000001A
:40070000000000000000000000003C3C3C3C3C3C3C3C00000000000000000000000000000000000000000000000000000000000000000000000000000000000000000000D9
:40074000000000000000000000003C3C3C3C3C3C3C14000000000000001400000000000000140000000000000014000000000000001400000000000000140000000000005D
:40078000001400000000000000143C000000000000003C00000000000D0D3C000000000D143C3C000000000D0D173C000000000D27073C000000000D3A0D3C000000000D29
:4007C000273A3C00000000000D070000000000000000000D070D0D0000000D3C3A3C2B0D070D072B170D070D3C3C0D0D0741270D3C310D0D0D3A270D313A0D273A271C0D6C
:40080000313C210D070D0D3C313C000D2B3C3C2B2B210D070D070D0D0D0D111D1D1D113C2B211D291D29291D3C3C31313A3A3A313A31312929292929293A313C1D1D1D1D97
:40084000113C31311D1D110D0D3C170D0D0000000000170D0700000000000D070D00000000002B210D00000000003C3C2B0D000000003A313C1107000000313A3C1D030D0F
:400880000D073C31291D030D031D000000000000000000000000000000000000000000000000000000000000000000000000000000000D0D070D0D0000001D110C0D0000BF
:4008C0000000311D0D0000000000000000000000000000000000000000000000000000000000000000000000003B000000000000003B000000000000003B000000000000EC
:400900000007000000000000000700003B3B3B3B3B3B003B1101090C1D293B1D290101090C1D112929010104091141414141412911110C1D114103090808111111290908D3
:400940000808111D111D080808083B3B3B00000000142929093B00000014293A09093B000014113A0909093B001403032941413B001408081D293A3B0014080111112907C9
:400980000014090409111D3B00143C00000000000D213C000000000D213C3C000000000D2B073C000000000D070D3C000000000D00003C000000000000003C0000000000E7
:4009C00000003C000000000000002B11291D113C31293C2B11291D1D3C3C2B210D111D113C31210D0D081111113C0D00000D030D0D3C000000070D070D0D0000000D0D0DB9
:400A0000070D0000000D070D0D0D3C3C3C1D0D2B0D09313C310D3C3C07083C3C3C3C312B0D083C3C3C313C2B0D082B3C3C3C3C2B0D08072B3C3C3C2B0D080D2B3C3C3C2BBC
:400A40000D08143C3C2B3C2B0D073C3C1D29030C3C11091D1D1D0C11293C0911111D113C3A3C091111112B3C3C3C090C110C2B3C3C3C090C0C212B2B3C2B09030C2B212B6E
:400A80002B0C0803212B032B0C111D0D000000000000110D0000000000000D000000000000000D0000000000000007000000000000000D000000000000000D0000000000DA
:400AC000000007000000000000000000000000000007000000000000003B000000000000003B000000000000003B0000000000000000000000000000000000000000000037
:400B0000000000000000000000000811111110080809010811090808090901040903080B080801294101091D2931071129010109112900071D01010B091D00003B07070BBB
:400B4000073B0000000000000000090801081107001403010101080700140101040801070014310841291D3B00143A0829110700001429081D3B000000143B3B3B000000A6
:400B8000001400000000000000143C000000000D00003C000000000D07003C000000000D0D0D3C0000000000070D3C00000000000D0D3C0000000000000D3C0000000000E6
:400BC00000003C000000000000000D000D070D0D070D0D070D0D0D080D17070D0D140D0908210D17071708090921070D1708080817170D0D070808081717070D0D0D080DF7
:400C00001707000D070D0D070D0D213C2B212B2B0D0D2B2B21071721070D2121140D0D140D0D142117170D0D070D21171708080D0D0D17170808080807081707080D080D0A
:400C4000080D0D0D0D070D070D0708092121090C110C0808172107030C03080D08170D08031707080D080D071717080D08070D0D0D210D070D0D0D070D070D0D0D070D0D50
:400C80000D0D0D070D0D0D00070D0D000000000000000D000000000000000D000000000000000700000000000000170D000000000000210D00000000000007170D00000020
:400CC00000000D0D070D00000000000000000000000000000000000000000000000000000000000000000000000000000000000000000000000000000000000000000000C6
:400D000000000000000000000000000000000000000000000000000000000000000000000000000000000000000000000000000000000000000000000000000000000000B3
:400D400000000000000000000000000000000000001400000000000000140000000000000014000000000000001400000000000000140000000000000014000000000000FB
:400D8000001400000000000000143C000000000000003C000000000000003C000000000000003C000000000000003C000000000000003C000000000000003C000000000067
:400DC00000003C000000000000000000000D0D0D0D070000000000070D0D000000000000000D0000000000000000000000000000000000000000000000000000000000004E
:400E0000000000000000000000000D070D0D0D0D0D0D0D0D070D070D070D070D0D0D0D0D0D0D0D14212B21141707000D0717212B21170000000D0708030C00000000000DF1
:400E40000D0700000000000000000D0D070D00000000070D0D000000003B0D07000000003B3B0D0D0000003B3B230D070D003B233B2F080D0D3B3B2F1E3A03083B231E3ACE
:400E80002F310D0D3B2A23313A310D070D0D07000000000000000000000000000000000000003B000000000000003B000000000000001E3B0000000000002A3B000000002B
:400EC00000003A233B0000000000000000000000000000000000000000000000000000000000000000003B003B000000003B233B233B00003B2327232A23003B23272F2F15
:400F00002F1E003B2A2F313A27070000000000000000000000000000000000000000000000003B00000000000000233B0000000000003B000000000000003B000000000028
:400F400000000000000000000000000000000000001400000000000000140000000000000014000000000000001400000000000000140000000000000014000000000000F9
:400F8000001400000000000000143C000000000000003C000000000000003C000000000000003C000000000000003C000000000000003C000000000000003C000000000065
:400FC00000003C00000000000000000000000000000000000000000000000000000000000000000000000000000000000000000000000000000000000000000000000000B5
:4010000000000000000000000000000000000000000000000000000000000000000000000000000000000000000000000000000000000000000000000000000000000000B0
:401040000000000000000000000000003B232F3A313A0000003B2F313A310000003B2A313A3A0000003B23313A31000000003B3A313A000000003B2F313A000000003B2A1A
:40108000313A000000003B23313A312A1E3B000000003A312A3B0000003B313A31233B003B233A313A2A1E3B232A313A313A2A233B2A3A313A313A273B23313A313A312F1D
:4010C000233B313A3A313A312F1E3B232A3A312F233B232A3A313A273B002A3A3A31073B3B3B3A313A313B182A23313A313A233B182F2A313A3A3B003B18232A313A3B0068
:401100003B3B3B3B23273B3B18230000000000000000000000000000000000003B3B000000003B3B3B233B3B000031233B3B23123B002F312F233B18123B2A273B3B3B3B3F
:40114000123B16072A2F2A2F3B2F0000000000000014000000000000001400000000000000140000000000000014000000000000001400000000000000143B000000000036
:4011800000142F3B0000000000143C000000000000003C000000000000003C000000000000003C000000000000003C000000000000003C000000000000003C0000000000F9
:4011C00000003C00000000000000000000000000000000000000000000000000000000000000000000000000000000000000000000000000000000000000000000000000B3
:4012000000000000000000000000000000000000000000000000000000000000000000000000000000000000000000000000000000000000000000000000000000000000AE
:401240003B3B000000003B3B232F00000000003B2F3100000000003B2A31000000003B183B2A0000003B1827183B003B3B2327313A273B2327313A313A31232731312F2A97
:40128000162A3A3A312F2A1607183A3A313A313A3A2A313A313A3A313A31313A313A313A313A3A313A313A313A313A313A3A313A313A3A3A313A313A3A312F313A313A3169
:4012C0003A31272F313A313A312F2A233B3B3B18232A3A2A2A231E2A2A233A312F2A2F3A31233A313A232A3A3A1E313A2A3B12232A233A2F27123B3B232A2F27183B0000E9
:401300003B072A183B0000000000072A3A3A312F2F313B2F31313B3B2F3B3B2F312F3B3B2F3B3B232A2F2A2F3B3B123B2323233B253023123B3B3B251A3B2A233B1A252C14
:4013400030223B3B3B1A2C30323D3A313B00000000143B2F3B00000000143B313B00000000143B3B3B3B3B3B3B143D3D3D2E30251A143B3B3B073B3B3B142525251A1A0717
:401380000014322C2C251A0700143C000000000000003C000000000000003C000000000000003C000000000000003C000000000000003C000000000000003C000000000091
:4013C000000014141414141414140000000000000000000000000000000000000000000000000000000000000000000000000000000000000000000000000000000000004D
:40140000000014141414141414140000003B18231E230000003B3B3B3B3B000000000000000000000000000000000000000000000000000000000000003B000000000000F3
:40144000003B1414141414141414183B182316073B3B3B003B3B3B3B3B3B0000003B3B203B0000003B3B203B00003B3B3B30073B3B3B20303D3B3B202C203B3B3B3B003B02
:401480003B3B1414141414141414182A2F2A2F2F2A233B3B18231E3B3B3B3B3B3B3B3B0000003B203B0000000000203B0000000000003B00000000000000000000000000FD
:4014C000000014141414141414143B3B00000000000000000000000000000000000000000000000000000000000000000000000000000000000000000000000000000000D6
:40150000000014141414141414140000003B25322E3D0000003B1A323D3E000000003B303D3E000000003B303D3D000000003B25322E000000003B1A253000000000003B9C
:40154000073B14141414141414142E3030251A0700143D3230251A0700143D3230251A0700142E3030251A07001432302C251A070014302C251907000014073B07070000DA
:40158000001414141414141414140F0F05000D000B00500070009000000017001900600011012E0200020003040444044F045505200506064006660617077707500730080A
:4015C000500888088F0899096009100A3A0A410AAA0A700A500B880BBB0B800BBF0BCC0C4C0C500CAA0C900DDD0D500DEE0E720E950EA20EB40E000FC60FD80FF00FFF0FF2
:4016000000006F0FB00FD00FFB0FF60FFF0FFF0FFF0FFF0FFF0FFF0FFF0FFF0FFF0FFF0FFF0FFF0FFF0FFF0FFF0FFF0FFF0FFF0FFF0FFF0FFF0FFF0FFF0FFF0FFF0FFF0F13
:40164000FF0FFF0FFF0FFF0FFF0FFF0FFF0FFF0FFF0FFF0FFF0FFF0FFF0FFF0FFF0FFF0FFF0FFF0FFF0FFF0FFF0FFF0FFF0FFF0FFF0FFF0FFF0FFF0FFF0FFF0FFF0FFF0FAA
:40168000FF0FFF0FFF0FFF0FFF0FFF0FFF0FFF0FFF0FFF0FFF0FFF0FFF0FFF0FFF0FFF0FFF0FFF0FFF0FFF0FFF0FFF0FFF0FFF0FFF0FFF0FFF0FFF0FFF0FFF0FFF0FFF0F6A
:4016C000FF0FFF0FFF0FFF0FFF0FFF0FFF0FFF0FFF0FFF0FFF0FFF0FFF0FFF0FFF0FFF0FFF0FFF0FFF0FFF0FFF0FFF0FFF0FFF0FFF0FFF0FFF0FFF0FFF0FFF0FFF0FFF0F2A
:40170000FF0FFF0FFF0FFF0FFF0FFF0FFF0FFF0FFF0FFF0FFF0FFF0FFF0FFF0FFF0FFF0FFF0FFF0FFF0FFF0FFF0FFF0FFF0FFF0FFF0FFF0FFF0FFF0FFF0FFF0FFF0FFF0FE9
:40174000FF0FFF0FFF0FFF0FFF0FFF0FFF0FFF0FFF0FFF0FFF0FFF0FFF0FFF0FFF0FFF0FFF0FFF0FFF0FFF0FFF0FFF0FFF0FFF0FFF0FFF0FFF0FFF0FFF0FFF0FFF0FFF0FA9
:0A178000FF0FFF0FFF0FFF0FFF0F19
:00000001FF
